:1000000000308A00E52800007830F80006389200B9
:10001000FE30831692008312211121088316870077
:10002000831207110C30970083169B019C0101304D
:100030009D0003170908C039890003131F129F127E
:10004000013003178800831203131F179F138316B1
:100050009F1383121F148A110A12FC288E30F70096
:100060002408F8002308F900FA01F808031D4228C3
:100070007908F800F9010830F702F808031D422852
:10008000F7014A280310F81B4928F90DF80DF7036A
:100090004228F8138A110A12092923080319BD28D6
:1000A000AB0027080319BD28AB0703185E287F3073
:1000B000AB02031CBD280319BD2862288130AB07A1
:1000C0000318BD282B08F700F801F901FA012408EC
:1000D000AF00AF172508AE002608AD001830AB0002
:1000E000AC012D1C8B282A08FA07031C7D28F90A6D
:1000F000031D7D28F80A0319AC172908F907031C0A
:100100008428F80A0319AC172808A500A5172508A4
:10011000F8070318AC17AC0DF80CF90CFA0CAF0C7F
:10012000AE0CAD0C0310AB0B70280130F7070318B1
:10013000BD28F81BA228AF0DFA0DF90DF80DF70335
:100140000319BD28AF1FB328FA0A031DB328F90A03
:10015000031DB328F80A031DB328F80CF90CFA0C98
:10016000F70A0319BD282408AC002808AC06AC1F08
:10017000BB28F817C128F813C128F701F801F901C5
:10018000FA018A110A121A298E30F7002208F702A2
:100190002308F9002408F800F917F7080319DB28E9
:1001A0000310F908031DD728F8080319DB28F90CF8
:1001B000F80CF70BD028A31FE228F809F909F80A70
:1001C0000319F90A8A110A12232903081F39830027
:1001D000FF30A100831603170908C03989000313F3
:1001E0001F129F12003003178800831287018801B5
:1001F00089018313031304280030F8001F08C33952
:1002000078049F009F149F180329A4011E08A300CF
:100210002E287A08A6007908A5007808A400770897
:10022000A3000A30AA00D730A9004330A8007F30CD
:10023000A7004D287A08A5007908A4007808A30033
:100240007708A200C4287808A00020089500FC28A0
:02025000630049
:04400E00E22FFF3F5F
:00000001FF
;PIC16F887
;CRC=971E  CREATED="24-feb.-22 15:02"
