:1000000000308A00BB2800008E30F7002408F8007A
:100010002308F900FA01F808031D18287908F800E8
:10002000F9010830F702F808031D1828F701202805
:100030000310F81B1F28F90DF80DF7031828F81303
:100040008A110A120529230803199328AB002708EF
:1000500003199328AB07031834287F30AB02031C25
:1000600093280319932838288130AB070318932865
:100070002B08F700F801F901FA012408AF00AF17C7
:100080002508AE002608AD001830AB00AC012D1CD1
:1000900061282A08FA07031C5328F90A031D53286C
:1000A000F80A0319AC172908F907031C5A28F80A9B
:1000B0000319AC172808A500A5172508F807031889
:1000C000AC17AC0DF80CF90CFA0CAF0CAE0CAD0C77
:1000D0000310AB0B46280130F70703189328F81BD1
:1000E0007828AF0DFA0DF90DF80DF70303199328D1
:1000F000AF1F8928FA0A031D8928F90A031D8928D8
:10010000F80A031D8928F80CF90CFA0CF70A0319F0
:1001100093282408AC002808AC06AC1F9128F817D7
:100120009728F8139728F701F801F901FA018A11C5
:100130000A1216298E30F7002208F7022308F90068
:100140002408F800F917F7080319B1280310F90873
:10015000031DAD28F8080319B128F90CF80CF70BAA
:10016000A628A31FB828F809F909F80A0319F90AFB
:100170008A110A121F2903081F398300FF30A100CA
:10018000831603170908C039890003131F129F1231
:1001900000300317880083128701880189018313C7
:1001A0007830F800063803139200FE308316920070
:1001B00083122111210883168700831207110C3046
:1001C000970083169B019C0101309D0003170908CD
:1001D000C039890003131F129F12013003178800D2
:1001E000831203131F179F1383169F1383121F1469
:1001F0000030F8001F08C33978049F009F149F182F
:10020000FF28A4011E08A30004287A08A600790884
:10021000A5007808A4007708A3000A30AA00D73008
:10022000A9004330A8007F30A70023287A08A50042
:100230007908A4007808A3007708A2009A28780813
:0A024000A00020089500F8286300D4
:04400E00E22FFF3F5F
:00000001FF
;PIC16F887
;CRC=13B5  CREATED="30-ago.-23 09:40"
