:1000000000308A00DB2800007830F80006389200C3
:10001000FE30831692008312211121088316870077
:10002000831207110C30970083161F109F141F15A1
:100030009F151F1383121F179F1383169F1383127D
:100040001F148A110A12EA288E30F7002408F800DB
:100050002308F900FA01F808031D38287908F80088
:10006000F9010830F702F808031D3828F701402885
:100070000310F81B3F28F90DF80DF7033828F81383
:100080008A110A12F72823080319B328AB0027089E
:100090000319B328AB07031854287F30AB02031CA5
:1000A000B3280319B32858288130AB070318B328A5
:1000B0002B08F700F801F901FA012408AF00AF1787
:1000C0002508AE002608AD001830AB00AC012D1C91
:1000D00081282A08FA07031C7328F90A031D7328CC
:1000E000F80A0319AC172908F907031C7A28F80A3B
:1000F0000319AC172808A500A5172508F807031849
:10010000AC17AC0DF80CF90CFA0CAF0CAE0CAD0C36
:100110000310AB0B66280130F7070318B328F81B50
:100120009828AF0DFA0DF90DF80DF7030319B32850
:10013000AF1FA928FA0A031DA928F90A031DA92837
:10014000F80A031DA928F80CF90CFA0CF70A031990
:10015000B3282408AC002808AC06AC1FB128F81757
:10016000B728F813B728F701F801F901FA018A1145
:100170000A1208298E30F7002208F7022308F90036
:100180002408F800F917F7080319D1280310F90813
:10019000031DCD28F8080319D128F90CF80CF70B2A
:1001A000C628A31FD828F809F909F80A0319F90A7B
:1001B0008A110A12112903081F398300FF30A10098
:1001C00083161F149F141F159F1107309C00831363
:1001D000831204280030F8001F08C73978049F00F4
:1001E0001F151F19F128A4011E08A30024287A084E
:1001F000A6007908A5007808A4007708A3000A30B3
:10020000AA00D730A9004330A8007F30A7004328B8
:100210007A08A5007908A4007808A3007708A2004E
:0E022000BA287808A00020089500EA2863009C
:02400E00723FFF
:00000001FF
;PIC16F877A
;CRC=4EA6  CREATED="24-feb.-22 15:02"
